:020000040000FA
:1000000020152020D5000000D9000000DB000000F2
:1000100000000000000000000000000000000000E0
:10002000000000000000000000000000DD000000F3
:100030000000000000000000DF000000E100000000
:10004000E3000000F10A0000E3000000E30000000C
:10005000E3000000E3000000E3000000E300000014
:1000600000000000E3000000E300000000000000CA
:1000700000000000E3000000E3000000E3000000D7
:10008000E51D0000E3000000E3000000E3000000C5
:10009000E3000000E300000000000000000000009A
:1000A000E3000000E300000000000000000000008A
:1000B000E300000000000000E3000000E300000097
:1000C0000348854600F0ECFA004800479D210000F7
:1000D0002015202003480047FEE7FEE7FEE7FEE785
:1000E000FEE7FEE7C1000000F8B502464A40D40F23
:1000F00042004B0052085B089A4202D20246084670
:1001000011464A0023D0C30D4A00DDB2120EAD1ACB
:10011000202D35DA49020126490AF6058A19002CF4
:1001200000D0524220214F1B1146B9402A411018DD
:10013000C20D9A4221D0002C17D0012D08DCDA051F
:10014000801AD20F8019D207DBB200F010FAF8BD86
:10015000DA05801A012340001B06C01880185A4295
:100160008018CA0F1043490007E04908C20711432D
:10017000DA05801A80194008801800F0F0F9F8BDFF
:1001800061000122511A001BF7E70122D2075140FA
:10019000AAE70122D2075040A6E7024670B54A40BE
:1001A000D30FDB0740002DD04A002AD0010E140ED9
:1001B000000212020919400A520A8418E501044695
:1001C0005443000A120A2E045043A4194219200C69
:1001D000C543AA18120C0125AD03521C5219120472
:1001E0007F39240400D0521C104301D44000491E22
:1001F000C2B20C06C0092018401C4008802A02D058
:1002000003E0002070BD40084000002900DA002013
:10021000184370BD70B502464A40D50F40004A00F1
:10022000ED0740085208002814D0002A12D0C40D4F
:10023000D30D41020120C0055202490A520AE41AB4
:10024000091812187D34914201D3641C00E0490062
:10025000002C01DA002070BD0023914201D3891ADD
:100260000343400849000028F7D100290AD09142F1
:1002700002D10121C90705E0914201D2012101E02B
:100280000121C943E005C018401900F068F970BDAC
:10029000F0B51FB488B00B9909980024484009991B
:1002A000C00F490049080991C0070B990090490007
:1002B00049080B9109990898A64608431CD00B9948
:1002C0000A98084318D0099801244000420D4800BC
:1002D000410D099824050003000B204309900B9859
:1002E0000003000B20430B9050181C4940180022BB
:1002F00001901446104605E0002001460DB0F0BD07
:10030000032801DA034600E003239C46C11A0AAE23
:100310000AE05F0008ADED5B4F00F75B7D4300270F
:10032000AA187C41491C5B1E6145F2DD410004AB0B
:100330005A522104120C0A43240C401C0828DFDB0B
:10034000019802900099704601910090059B049AD3
:100350000799069800F051F9D0E700000DFCFFFF67
:10036000F0B50C465C4085B0E40FE40703944C0004
:100370000026640859009446490802460296224322
:1003800021D062460A431ED06200570D4A000E0378
:100390002303550D012402462C492405781B1B0B11
:1003A000360B401823432643614600901C46501AE2
:1003B000B44103D30098401C009002E092180098CA
:1003C0005B41002803DA0020014605B0F0BD0020A3
:1003D000012109050746864611E064461D46141BA7
:1003E000B54106D36546521BB341744607430C43DF
:1003F000A646CD0740084908284392185B410546A8
:100400000D43EAD11046184313D0604619465040B8
:100410007140084306D06046101AB34106D201224B
:10042000002306E000220123DB0702E00122D24381
:100430005310009874460105381C6141029C039DCD
:100440000019694100F0CCF8BFE70000FD0300008F
:100450000122D207002800DB101A002900DB511A04
:10046000814201D201207047002070470122D2074B
:10047000002800DB101A002900DB511A814201D943
:100480000120704700207047C217C10F504010B5BF
:100490004018CA079623002100F069F810BD10B576
:1004A00000229623114600F062F810BDC20F4100F1
:1004B00040020123400ADB05D207090EC0187F293C
:1004C00001DA00207047962903DC9623591AC840A8
:1004D00001E096398840002AF4D040427047C20FAC
:1004E000D207400040080BD0C10D0723DB01C9181B
:1004F00040020905400A1143C208400711437047F2
:10050000002001467047CB0FDB07490010B54908B2
:1005100002460A4307D00A0D07240903E401090B28
:10052000121B002A01DC002010BDC900440F0C433F
:10053000C100E018D205801800F011F810BD10B508
:10054000202A04DB0146203A9140002010BD914052
:1005500020239C1A0346E3401943904010BD002914
:1005600004DA401C490001D140084000704770B4D3
:100570000024050C05D11024000402D1002921D04B
:100580001124050E01D100020834050F01D100012C
:10059000241D850F01D18000A41C002801DB400030
:1005A000641C002908D020252E1B0D46F540A140D3
:1005B00000D001212943084301061B1B000ADB1D53
:1005C00002D5002070BC7047DB0518188018002980
:1005D000F8DA401C4900F5D170BC40084000704773
:1005E00010B5002B08DA0024401C614192185B41D1
:1005F0001A4301D14008400010BDF0B51FB482B0CD
:1006000005460C0003D0084601F0E2FD02E001F0CF
:10061000DFFD20300246009021462846FFF78FFF7D
:10062000049B059A04460F4618431143084314D00F
:10063000184610431BD0009840210A1A1846059905
:1006400000F046F805460E46009A05990498FFF713
:1006500076FF084305D0012004E02046394607B064
:10066000F0BD0020C11705430E432C4337430099CA
:100670000E986305401A7905E40A00220C43FD0A2E
:100680000A3002D500200146E9E701051019694149
:100690000C9C0D9D00196941FFF7A2FFDFE70000E8
:1006A0001CB5094800900948019005460126009CA8
:1006B00005E0E36807CC33430C3C98471034AC4268
:1006C000F7D3FFF701FD000080220000A022000008
:1006D00010B5202A04DB0846203AD040002110BD86
:1006E0000B46D340D0402024A21A9140084319461B
:1006F00010BD811E091F00BFFCD2704770B50A787B
:100700000C231A400124240305196E689E43B21875
:100710006A604978072211400359934359180151DF
:1007200070BD0000F0B584B0012422022A4B196884
:1007300003929143196035490D686D04FCD5457EDF
:1007400025409E69A64374199C612024045D0325FD
:100750002C40DE69AE433419DC61204C2568052647
:100760002660466A37681F6276685E6207262E40FA
:100770002660C4697F252D02DE69AE436406640CE1
:100780003419DC610768456882680092C6680269AE
:100790000192426902929A69114C14403A07120B75
:1007A0002D03ADB2AA183243009D2D072D0D154320
:1007B000019A1543029A1543007E2843094A0240D4
:1007C000101998611868039A10431860086880052A
:1007D000FCD504B0F0BDC04608010B4000134040FA
:1007E0008D00F0FF72FF0F0007498860074802681C
:1007F0009202FCD5012212040B6813430B600168BE
:10080000C906FCD57047C04604010B4004020B40EA
:1008100070B582B00B794A79002A25D0184A202B6E
:1008200002D00524E40100E0434C8218002B00D1E3
:100830008824156C3F4E35402D191564556C354094
:100840002C19546414687A4D2C40146054682C4060
:1008500054600024146254628F24E443156D2540D3
:100860001565556D254055656A4613718B79537131
:1008700009680091114600F005F802B070BDC0464D
:1008800038180000F0B5684A8218294BC318087957
:1008900020280DD000281DD10C68641E5460D56E30
:1008A000244C25408835D5661646703688251DE0CF
:1008B0000C68641E5460D46E1E4D2C401E4EA4194C
:1008C000D466146F2C40A4191467012465071B4CCF
:1008D00016460BE00C6864085460D66E154C264032
:1008E0000525ED017619D66616467036376827401D
:1008F0002F433760D46A4E4D2C40D462146B2C4089
:1009000014630024D46414658F24E443D56F254018
:10091000D5671D6825401D6049790143BD20084009
:100920001168074B0B40C018801C1060F0BDC0461A
:100930008418000024493E0001040000FFFFFFCF9F
:100940004000FFCFB0B54A68364BC250364A8018D7
:100950000A78222A58D8930001A4E3589F46C0463B
:10096000FF090000090A0000FF090000090A000051
:10097000090A0000090A0000090A0000090A00002B
:10098000090A0000090A0000090A0000090A00001B
:10099000090A0000090A0000090A0000090A00000B
:1009A000ED090000090A0000ED090000090A000035
:1009B000090A0000090A0000090A0000090A0000EB
:1009C000090A0000090A0000090A0000090A0000DB
:1009D000090A0000090A0000090A0000090A0000CB
:1009E000ED090000090A0000ED09000003231B07C0
:1009F00004689C4301235B07E318036004E00323BE
:100A00001B0704689C4304600B69C360CB68074CF8
:100A10001C40C36A064D1D402B19C362097A11435D
:100A20000160B0BD081800000418000077770200CC
:100A30008888FDFF10B507239B0419409200801899
:100A4000024A84589C436118815010BD3018000040
:100A500010B5029CA400001911431943014A8150AA
:100A600010BDC0465018000092008018014A815005
:100A70007047C0461018000010B5012212038318F9
:100A80000C789C604B7883508978014A815010BD66
:100A90000C110000B0B51122120283580124A343A7
:100AA00083500B888C781C438B882343094C1C4053
:100AB0008358094D1D40631983508B79CC791C43B1
:100AC000097A21437E231940801842689A435118BD
:100AD0004160B0BD18670000E798FDFF10B5012226
:100AE000120383180C789C604978815010BD000077
:100AF000F0B503204106244A103A166832460A40EF
:100B0000224B1A6011221305214A1446103C246816
:100B100025461D401F4F3D600125AF06B0010AD498
:100B20003E4211D068061C4E37681C4E366807429C
:100B300007D0761E06E018480068184E366838421E
:100B4000F7D0761C154806602E06E0020AD434421F
:100B500011D02805124C2568124C2468054207D094
:100B6000641E06E00E4800680E4C24683042F7D040
:100B7000641C0C480460044C206808432060106822
:100B800018431060F0BDC04648100A4010052020F0
:100B900048300A401405202080130A40100020200D
:100BA00080330A4014002020F0B581B04A42184B2F
:100BB00044421C605A600846FFF766FC1549FFF77F
:100BC000ECFAFFF78CFC144A144F3B46FFF760FB2E
:100BD0000025134E2A463346FFF7C2FBFFF793FC6E
:100BE000104908602046FFF74FFC0A49FFF7D5FA85
:100BF000FFF775FC084A3B46FFF74AFB2A46334697
:100C0000FFF7AEFBFFF77FFC0749086001B0F0BDBE
:100C10004C0420200000484380A3EA455723CA3FE4
:100C200000C086403C0020202C00202000280DD051
:100C300009490A88521C0A8092B2824205D10020DA
:100C400008800120400205490861704701204002E8
:100C5000024908607047C04628002020A0320A40A0
:100C600070B50124A603FC4D2E61782001F098F99F
:100C70002E60E00328612107F84A11601346103BFB
:100C8000E6071E60196011601660196011601E6031
:100C9000196011601660196011601E6019601160A2
:100CA0001E60196011601E60196011601660196085
:100CB0002860286111601E60196011601E60196053
:100CC00011601660196011601E6019601160166075
:100CD000196011601E601960116016601960116062
:100CE0001E6019602860286111601660196011602B
:100CF0001E60196011601660196011601E60196035
:100D0000116016601960116016601960116016603C
:100D100019601160166019602860286111601E60FA
:100D2000196011601660196011601E601960116011
:100D30001660196011601E601960116016601960FC
:100D400011601660196011601660196028602861D2
:100D500011601660196011601660196011601E60E4
:100D6000196011601E60196011601E6019601160C9
:100D70001E60196011601E60196011601E601960AC
:100D80002860286111601E60196011601E60196082
:100D900011601660196011601E60196011601660A4
:100DA000196011601660196011601E601960116091
:100DB0001E6019602860286111601660196011605A
:100DC0001660196011601660196011601660196074
:100DD000116016601960116016601960116016606C
:100DE0001960116016601960286028611160166032
:100DF000196011601E601960116016601960116041
:100E00001660196011601660196011601660196033
:100E10001160166019601160166019602860286101
:100E200011601E6019601160166019601160166013
:100E3000196011601660196011601E601960116000
:100E40001E60196011601660196011601E601960E3
:100E500028602861116016601960116016601960C1
:100E600011601660196011601E60196011601660D3
:100E7000196011601E6019601160166019601160C0
:100E80001660196028602861116016601960116091
:100E90001660196011601E6019601160166019609B
:100EA000116016601960116016601960116016609B
:100EB0001960116016601960286028611160166061
:100EC0001960116016601960116016601960116078
:100ED0001660196011601660196011601660196063
:100EE00011601E6019601160166019602860286129
:100EF00011601E60196011601660196011601E603B
:100F00001960116016601960116016601960116037
:100F10001660196011601660196011601E6019601A
:100F20002860286111601E60196011601E601960E0
:100F3000116016601960116016601960116016600A
:100F400019601160166019601160166019601160F7
:100F5000166019602860286111601E6019601160B8
:100F60001E60196011601660196011601E601960C2
:100F700011601E60196011601660196011601E60BA
:100F80001960116016601960286028611160166090
:100F900019601160166019601160166019601160A7
:100FA0001E6019601160166019601160166019608A
:100FB00011601E6019601160166019602860286158
:100FC00011601E6019601160166019601160166072
:100FD0001960116016601960116016601960116067
:100FE0001660196011601660196011601E6019604A
:100FF0002860286111601E60196011601E60196010
:1010000011601E60196011601660196011601E6029
:10101000196011601E60196011601E601960116016
:101020001E6019602860286111601E6019601160DF
:101030001E60196011601660196011601E601960F1
:1010400011601E60196011601660196011601660F1
:10105000196011601E6003E090320A40A0120A403D
:1010600019602860286111601E60196011601E609F
:10107000196011601E60196011601E6019601160B6
:1010800016601960116016601960116016601960B1
:1010900011601E6019602860286111601E6019606F
:1010A00011601E60196011601660196011601E6089
:1010B000196011601E60196011601660196011607E
:1010C0001E60196011601E6019602860286111603F
:1010D0001660196011601660196011601E60196059
:1010E00011601E6019601160166019601160166051
:1010F000196011601660196011601660196028602F
:10110000286111601E60196011601660196011601D
:101110001E60196011601660196011601660196018
:1011200011601E6019601160166019601160166010
:1011300019602860286111601E60196011601660D6
:10114000196011601E6019601160166019601160ED
:101150001660196011601E60196011601E601960D0
:101160001160166019602860286111601E601960A6
:1011700011601660196011601E60196011601660C0
:10118000196011601E60196011601E6019601160A5
:101190001E60196011601E601960286002480346D5
:1011A000F833802502E0C0464C0020200021197051
:1011B0001A46083A11701A46103A11701A46183A2F
:1011C00011701A46203A11701A46283A11701A46C0
:1011D000303A11701A46383A11701A46403A117076
:1011E0001A46483A11701A46503A11701A46583A3F
:1011F00011701A46603A11701A46683A11701A4610
:10120000703A11701A46783A11701A46803A117085
:101210001A46883A11701A46903A11701A46983A4E
:1012200011701A46A03A11701A46A83A11701A465F
:10123000B03A11701A46B83A11701A46C03A117095
:101240001A46C83A11701A46D03A11701A46D83A5E
:1012500011701A46E03A11701A46E83A11701A46AF
:10126000F03A11701A46F83A117022029B18203D8C
:101270009CD10446F934802321702546083D29700D
:101280002546103D29702546183D29702546203DEC
:1012900029702546283D29702546303D2970254670
:1012A000383D29702546403D29702546483D297026
:1012B0002546503D29702546583D29702546603DFC
:1012C00029702546683D29702546703D29702546C0
:1012D000783D29702546803D29702546883D297036
:1012E0002546903D29702546983D29702546A03D0C
:1012F00029702546A83D29702546B03D2970254610
:10130000B83D29702546C03D29702546C83D297045
:101310002546D03D29702546D83D29702546E03D1B
:1013200029702546E83D29702546F03D2970A5180D
:10133000F83C2170203B2C469ED10446FA34802391
:1013400021702546083D29702546103D2970254607
:10135000183D29702546203D29702546283D2970D5
:101360002546303D29702546383D29702546403DAB
:1013700029702546483D29702546503D297025464F
:10138000583D29702546603D29702546683D2970E5
:101390002546703D29702546783D29702546803DBB
:1013A00029702546883D29702546903D297025469F
:1013B000983D29702546A03D29702546A83D2970F5
:1013C0002546B03D29702546B83D29702546C03DCB
:1013D00029702546C83D29702546D03D29702546EF
:1013E000D83D29702546E03D29702546E83D297005
:1013F0002546F03D2970A518F83C2170203B2C466D
:101400009ED10446FB34802321702546083D297077
:101410002546103D29702546183D29702546203D5A
:1014200029702546283D29702546303D29702546DE
:10143000383D29702546403D29702546483D297094
:101440002546503D29702546583D29702546603D6A
:1014500029702546683D29702546703D297025462E
:10146000783D29702546803D29702546883D2970A4
:101470002546903D29702546983D29702546A03D7A
:1014800029702546A83D29702546B03D297025467E
:10149000B83D29702546C03D29702546C83D2970B4
:1014A0002546D03D29702546D83D29702546E03D8A
:1014B00029702546E83D29702546F03D2970A5187C
:1014C000F83C2170203B2C469ED10446FC348023FE
:1014D00021702546083D29702546103D2970254676
:1014E000183D29702546203D29702546283D297044
:1014F0002546303D29702546383D29702546403D1A
:1015000029702546483D29702546503D29702546BD
:10151000583D29702546603D29702546683D297053
:101520002546703D29702546783D29702546803D29
:1015300029702546883D29702546903D297025460D
:10154000983D29702546A03D29702546A83D297063
:101550002546B03D29702546B83D29702546C03D39
:1015600029702546C83D29702546D03D297025465D
:10157000D83D29702546E03D29702546E83D297073
:101580002546F03D2970A518F83C2170203B2C46DB
:101590009ED10446FD34802321702546083D2970E4
:1015A0002546103D29702546183D29702546203DC9
:1015B00029702546283D29702546303D297025464D
:1015C000383D29702546403D29702546483D297003
:1015D0002546503D29702546583D29702546603DD9
:1015E00029702546683D29702546703D297025469D
:1015F000783D29702546803D29702546883D297013
:101600002546903D29702546983D29702546A03DE8
:1016100029702546A83D29702546B03D29702546EC
:10162000B83D29702546C03D29702546C83D297022
:101630002546D03D29702546D83D29702546E03DF8
:1016400029702546E83D29702546F03D2970A518EA
:10165000F83C2170203B2C469ED10446FE3480236A
:1016600021702546083D29702546103D29702546E4
:10167000183D29702546203D29702546283D2970B2
:101680002546303D29702546383D29702546403D88
:1016900029702546483D29702546503D297025462C
:1016A000583D29702546603D29702546683D2970C2
:1016B0002546703D29702546783D29702546803D98
:1016C00029702546883D29702546903D297025467C
:1016D000983D29702546A03D29702546A83D2970D2
:1016E0002546B03D29702546B83D29702546C03DA8
:1016F00029702546C83D29702546D03D29702546CC
:10170000D83D29702546E03D29702546E83D2970E1
:101710002546F03D2970A518F83C2170203B2C4649
:101720009ED1FF30802301700446083C217004469E
:10173000103C21700446183C21700446203C217066
:101740000446283C21700446303C21700446383C55
:1017500021700446403C21700446483C21700446F8
:10176000503C21700446583C21700446603C217076
:101770000446683C21700446703C21700446783C65
:1017800021700446803C21700446883C2170044648
:10179000903C21700446983C21700446A03C217086
:1017A0000446A83C21700446B03C21700446B83C75
:1017B00021700446C03C21700446C83C2170044698
:1017C000D03C21700446D83C21700446E03C217096
:1017D0000446E83C21700446F03C21708418F83837
:1017E0000170203B20469ED100F002F870BD000041
:1017F000F0B585B00120C5030107C20700267D486A
:101800000190AF4C7C4F039507E00198401C01907C
:10181000009E761C082E00D1E9E03D612160234640
:10182000103B1A60196021602260196021601A6003
:10183000196021601A6019602160226019602160BE
:10184000042E254600D31D462A6019602160B0078A
:10185000254600D51D462A60196021600096F007D4
:10186000254600D01D462A601960039D3D603D61FC
:10187000216022601960216022601960216022606D
:101880001960216022601960216022601960216066
:101890002260196021602260196021602260196055
:1018A0003D603D6121602260196021602260196005
:1018B00021602260196021601A6019602160226035
:1018C0001960216022601960216022601960216026
:1018D000226019603D608020019E08E01A60296046
:1018E000039D3D60801E049E103600288DD000238D
:1018F0000496F6563D6021602546103D002E234695
:1019000000DA2B461A60296021607306234600D551
:101910002B461A6029602160B306234600D52B466A
:101920001A6029602160F306234600D52B461A6011
:10193000296021603307234600D52B461A602960B1
:1019400021607307234600D52B4602901A60296058
:101950002160B307234600D52B4638461A6029601C
:101960002160F307234600D02B461A602960039FAD
:1019700007600823049EF656076007462160002E84
:10198000234600DA2B461A6029602160730623463D
:10199000029800D52B461A6029602160B3062346C1
:1019A00000D52B461A6029602160F306234600D536
:1019B0002B461A60296021603307234600D52B4649
:1019C0001A60296021607307234600D52B461A60F0
:1019D00029602160B307234600D52B461A60296091
:1019E0002160F307234600D178E72B4676E705B060
:1019F000F0BDC0464C00202090320A40B0B52C49C2
:101A000088228A632B4804230360CA630822026089
:101A1000294B9A1C0A604A60012254060D6825432E
:101A20000D604D6825434D6082240C655C1C4C653F
:101A30004B6381254D66214CE361A365A366E36397
:101A4000E364E560A5606561A5618D67CD678D6024
:101A50004D61A36223606360E3661949194B0B6013
:101A60000B63D103184A13680B43136005218904E3
:101A700013690B43136115490A6A154B1A430A622D
:101A80000A681A430A6001463039612252020A602C
:101A9000026010480168104A0A43026011200005E4
:101AA0000E490A6A02430A620A6802430A60B0BD2C
:101AB00004804240D0320A408100040084804240C9
:101AC000A0120A400060039090130A4028100A40B8
:101AD00080000006A0330A400001010028300A40BF
:101AE00080B511481149FEF709FE03204102104854
:101AF00002680A43026001210A020368134303607B
:101B00000022426109224262826B07239A43826368
:101B10001A02836B93438363826A042313438362B1
:101B2000826A0A43826280BD00000F4026220000C4
:101B300000120F4070B582B0A94C19492046FEF73B
:101B40009BFF18492046FEF763FE002500952046BE
:101B500029462A462B46FEF77BFF204629462A4681
:101B6000FEF768FF204629462A46FEF77DFF01263C
:101B70000096204629462A462B46FEF769FF204656
:101B800029463246FEF756FF204629463246FEF7E2
:101B90006BFF054886600321016002B070BDC0463E
:101BA000282200002C22000000318640F0B581B0D0
:101BB0001B48002404600F2000021A4D296881434D
:101BC00001277E02881928600320C043291F0A6864
:101BD00002400A606868B8436860380269688143F7
:101BE00069601148FEF79EFD2868102108432022F5
:101BF0009043286038032A6802432A60A86B084390
:101C0000A863686BB04368632046FEF7EDFDFF20D4
:101C1000000206490A6882430A6001B0F0BDC0466E
:101C200008030B4004010B403422000000E400E0F4
:101C30000548042101600549416000218160016877
:101C400005220A430260704710E000E0FFFFFF003A
:101C500010B5084C08492046FEF70EFF07492046FC
:101C6000FEF770FE06480168012211430160054835
:101C7000026010BD004008405C22000060220000AD
:101C8000285008400851084010B51B4C1B492046FD
:101C9000FEF724FF1A492046FEF7FCFE0320C1038D
:101CA000184802688A4302600169174A0A401532DF
:101CB000026141692D220A4312218A43426142682E
:101CC00001210A4043688B439A1842604A04036822
:101CD00013430360C26870231343C360C2680223C6
:101CE000134305229343C360026804231343036034
:101CF00002680A43026010BD008010407422000098
:101D000076220000009110400000FFFF80B500F037
:101D100015F8FFF773FEFFF749FFFFF70BFFFFF71B
:101D200097FFFFF7DDFEFFF7AFFFFFF781FFB8205A
:101D3000014900220A5480BD5404202070B50C488B
:101D40000C4941600C4A51600C4B59600C4C61606D
:101D50000C4D69600C4E71600C4901601160196096
:101D60002160296031601020FEF7C3FC70BDC046C1
:101D700000080A40030000B100280A4000288640FD
:101D80000048084000080F4000881040010000266D
:101D9000F0B581B00C46014601277803BA030F4E17
:101DA000012902DB3060326102E032603061494279
:101DB0000B4D00222846FEF757FE38047904012C0B
:101DC00002DB3160306102E0306031616442012247
:101DD00028462146FEF748FE01B0F0BD90120A40A9
:101DE00000208640F0B587B05E480068000600D14C
:101DF000B6E0C82000F052F9022807D001280ED121
:101E00005A4801684A424A41026008E0564801685F
:101E1000491CCA0F8A1801239A43891A0160642059
:101E2000FEF704FF524C2168524D28684042494257
:101E3000FEF7BAFE00272F6027604F4988680968BF
:101E4000FEF7A3F904464D48056804604C498868CC
:101E50000968FEF79AF906464A4801680591066046
:101E600020462946FEF791F9054647480168204675
:101E70000491FEF792F9044644480068029029460E
:101E8000FEF78BF92146FEF72FF90146404800681E
:101E9000FEF72AF90446354800680690002800D06D
:101EA0003C4601973B4F20463946FEF7DFFA0028B3
:101EB0003D4600D12546384C28462146FEF7C8FA53
:101EC0000028204600D1284603903149086030465A
:101ED0000599FEF75AF9054604983146FEF75DF973
:101EE000064602982946FEF758F93146FEF7FCF8F7
:101EF00001462A4D2868FEF7F7F80646069800289E
:101F000000D0019E30463946FEF7B0FA002800D1D5
:101F1000374638462146FEF79BFA002800D13C465A
:101F20002C600398FEF7C2FAFEF7AEFA0546124897
:101F300045602046FEF7BAFA0446FEF7A5FA1049B6
:101F400048600698002802D00020014606E00120E3
:101F5000C00745402846FEF7A9FA2146FFF718FFBB
:101F600007B0F0BD205008400400202000002020D1
:101F700014002020100020202C00202018002020F9
:101F80003C00202020002020080020200C002020E1
:101F90001C00202000C0F34500C0F3C52400202011
:101FA000F0B581B03A49884200D3084650214143F8
:101FB0000024394B009404E0A41C7D20C00084421E
:101FC00063D01868334A8618009F02E0AA1A8A4232
:101FD00029D21A68824200D901273D06054600D061
:101FE0003546AA1A8A421ED21A68824200D90127AF
:101FF0003D06054600D03546AA1A8A4213D21A6811
:10200000824200D901273D06054600D03546AA1A6E
:102010008A4208D21A68824200D901273D06054645
:10202000D4D03546D2E71D681A482E18002702E0A2
:10203000801A8842C0D21A68AA4200D901273806FD
:10204000284600D03046801A8842B5D21A68AA4283
:1020500000D901273806284600D03046801A884229
:10206000AAD21A68AA4200D901273806284600D009
:102070003046801A88429FD21A68AA4200D90127A6
:1020800038062846D4D03046D2E701B0F0BDC0466D
:1020900033330300FFFFFF0018E000E0F0B583B02A
:1020A000FEF7FDF901467F20C005FEF7B3F832497F
:1020B000FEF773F802900126B40430490878304ADC
:1020C00000280BD0304800250580304805702D4889
:1020D0000580106820421FD10D7001E02948058855
:1020E000374610681646204205D028480121017065
:1020F0006D1C2448058026480299FEF78BF8FEF7F0
:10210000D5F9A9B2814232463E4606D903211B4881
:102110000670084603B0F0BD10681C480178002026
:10212000012927D118490D881268224201902746BB
:1021300001D16D1C0D801748029C2146FEF76AF8FC
:10214000FEF7B4F9009014482146FEF763F8FEF755
:10215000ADF9A9B2009A914208D9814206D2084845
:1021600000683842019805D00221D0E7814231460B
:102170000198CCD803B0F0BD00007A4418052020A7
:1021800080130A401A0520201E0520201C0520204F
:102190000000FA430000484200009643FFF7B6FDF6
:1021A000FEF75EFD07480168012211430160064801
:1021B000022101600160054B196019601104016082
:1021C0001960FEE70438864080E200E000E100E0AC
:1021D0002021020C01D010211046020A01D0104625
:1021E0000839020901D01046091F820801D01046A3
:1021F000891E420801D0881E7047081A70470000E7
:1022000002E008C8121F08C1002AFAD17047000076
:102210007047000000000000002001E001C1121F13
:10222000002AFBD17047080008000000401F000092
:10223000200001000100000000000000000000007C
:10224000400000002000000000000000020000002C
:1022500004000000010000002C00C44108001F0021
:1022600002000000D3300000010000000000000068
:10227000000000000800000018000000003000000E
:10228000A02200000000202010000000002200001A
:10229000B0220000100020201015000018220000BD
:1022A00001000000010000000000C8430000C84316
:04000005000000C136
:00000001FF
