:020000040000FA
:1000000028112020D5000000D9000000DB000000EE
:1000100000000000000000000000000000000000E0
:10002000000000000000000000000000DD000000F3
:100030000000000000000000DF000000F9110000D7
:10004000E30000005D0D0000E3000000E30000009D
:10005000E3000000E3000000E3000000E300000014
:1000600000000000E3000000E300000000000000CA
:1000700000000000E3000000E3000000E3000000D7
:1000800045120000E3000000E3000000E300000070
:10009000E3000000E300000000000000000000009A
:1000A000E3000000E300000000000000000000008A
:1000B000E300000000000000E3000000E300000097
:1000C0000348854600F018FC00480047A9150000C9
:1000D0002811202003480047FEE7FEE7FEE7FEE781
:1000E000FEE7FEE7C1000000F8B502464A40D40F23
:1000F00042004B0052085B089A4202D20246084670
:1001000011464A0023D0C30D4A00DDB2120EAD1ACB
:10011000202D35DA49020126490AF6058A19002CF4
:1001200000D0524220214F1B1146B9402A411018DD
:10013000C20D9A4221D0002C17D0012D08DCDA051F
:10014000801AD20F8019D207DBB200F090FAF8BD06
:10015000DA05801A012340001B06C01880185A4295
:100160008018CA0F1043490007E04908C20711432D
:10017000DA05801A80194008801800F070FAF8BD7E
:1001800061000122511A001BF7E70122D2075140FA
:10019000AAE70122D2075040A6E7024670B54A40BE
:1001A000D30FDB0740002DD04A002AD0010E140ED9
:1001B000000212020919400A520A8418E501044695
:1001C0005443000A120A2E045043A4194219200C69
:1001D000C543AA18120C0125AD03521C5219120472
:1001E0007F39240400D0521C104301D44000491E22
:1001F000C2B20C06C0092018401C4008802A02D058
:1002000003E0002070BD40084000002900DA002013
:10021000184370BD70B502464A40D50F40004A00F1
:10022000ED0740085208002814D0002A12D0C40D4F
:10023000D30D41020120C0055202490A520AE41AB4
:10024000091812187D34914201D3641C00E0490062
:10025000002C01DA002070BD0023914201D3891ADD
:100260000343400849000028F7D100290AD09142F1
:1002700002D10121C90705E0914201D2012101E02B
:100280000121C943E005C018401900F0E8F970BD2C
:10029000F0B507460846584087B0C00F04904800A4
:1002A0000E46590040084908BC1A884105D2384614
:1002B00031461E4617460B4602465800400810437A
:1002C0004CD0300D039040055900400D490D05906C
:1002D000401A0290402872DA18030121000B090528
:1002E0000843019004980092002805D001995242D9
:1002F0000020884100920190029840210A1A019939
:10030000009800F089F905460C466B4607CB00F0D3
:1003100093F9C0197141039A0E0D0023D717564067
:100320001A467A40164344D0049A002A2DD0029AE5
:10033000012A039A15DC1205C01A914101263605DF
:10034000001C7141D20F059ED207009301920296C4
:100350002A46234600F0D1F907B0F0BD38463146B1
:10036000FAE71605224A0F46B218C01AB741012112
:100370000905001C4F4100187F41114618187941AA
:10038000E20F10436D19644113E0E2076D08154355
:100390006408C2071443039A01261205C01A91414A
:1003A0003605001C7141CE07400830434908C0188B
:1003B00051412A46234600F093F9CDE7FFE7049820
:1003C00001224000C117121A00238B4104983146C4
:1003D000C417381AA141EEE730B40124E4076340A2
:1003E00030BC55E730B40124E407614030BC4FE72E
:1003F0000000E0FFF0B51FB488B00B990998002405
:1004000048400999C00F490049080991C0070B9954
:100410000090490049080B9109990898A64608439D
:100420001CD00B990A98084318D009980124400061
:10043000420D4800410D099824050003000B20439C
:1004400009900B980003000B20430B9050181C4997
:100450004018002201901446104605E00020014695
:100460000DB0F0BD032801DA034600E003239C46EB
:10047000C11A0AAE0AE05F0008ADED5B4F00F75B02
:100480007D430027AA187C41491C5B1E6145F2DDB3
:10049000410004AB5A522104120C0A43240C401CA4
:1004A0000828DFDB019802900099704601910090C6
:1004B000059B049A0799069800F01FF9D0E7000001
:1004C0000DFCFFFF0122D207002800DB101A0029D3
:1004D00000DB511A814201D3012070470020704790
:1004E0000122D207002800DB101A002900DB511A74
:1004F000814201D90120704700207047C217C10F07
:10050000504010B54018CA079623002100F0AFF8FC
:1005100010BD10B500229623114600F0A8F810BDBA
:10052000C20F410040020123400ADB05D207090E39
:10053000C0187F2901DA00207047962903DC962332
:10054000591AC84001E096398840002AF4D0404248
:100550007047C20FD207400040080BD0C10D0723DF
:10056000DB01C91840020905400A1143C2084007CF
:100570001143704700200146704770B504460029BA
:1005800003D000202022012310E0002801D0002009
:10059000C043C046C0460DE02546D5408D4205D338
:1005A0000D469540641B1D46954040191546521E48
:1005B000002DF1DC214670BDF0B51FB406460020C9
:1005C00082B005464024019100901BE0019922462B
:1005D0000F46304600F0A8F9049A059B801A99410D
:1005E00010D310461946224600F016F8361A8F41ED
:1005F0000197224601200021009F00F00DF83818D5
:100600004D4100902046641E0028DFDC019B0098CD
:100610002946324607B0F0BD10B5202A04DB01465A
:10062000203A9140002010BD914020239C1A03469F
:10063000E3401943904010BD10B5202A06DBCB17CC
:100640000846203A1041C1170B4306E00B46134100
:10065000D0402024A21A91400843194610BD002919
:1006600004DA401C490001D140084000704770B4D2
:100670000024050C05D11024000402D1002921D04A
:100680001124050E01D100020834050F01D100012B
:10069000241D850F01D18000A41C002801DB40002F
:1006A000641C002908D020252E1B0D46F540A140D2
:1006B00000D001212943084301061B1B000ADB1D52
:1006C00002D5002070BC7047DB051818801800297F
:1006D000F8DA401C4900F5D170BC40084000704772
:1006E00010B5002B08DA0024401C614192185B41D0
:1006F0001A4301D14008400010BDF0B51FB482B0CC
:1007000005460C0003D0084600F09EFF02E000F012
:100710009BFF20300246009021462846FFF77CFFD1
:10072000049B059A04460F4618431143084314D00E
:10073000184610431BD0009840210A1A1846059904
:1007400000F0F2F805460E46009A05990498FFF766
:1007500063FF084305D0012004E02046394607B076
:10076000F0BD0020C11705430E432C4337430099C9
:100770000E986305401A7905E40A00220C43FD0A2D
:100780000A3002D500200146E9E701051019694148
:100790000C9C0D9D00196941FFF7A2FFDFE70000E7
:1007A000F0B50C465C4085B0E40FE40703944C00C0
:1007B00000266408590094464908024602962243DE
:1007C00021D062460A431ED06200570D4A000E0334
:1007D0002303550D012402462C492405781B1B0BCD
:1007E000360B401823432643614600901C46501A9E
:1007F000B44103D30098401C009002E09218009886
:100800005B41002803DA0020014605B0F0BD00205E
:10081000012109050746864611E064461D46141B62
:10082000B54106D36546521BB341744607430C439A
:10083000A646CD0740084908284392185B41054663
:100840000D43EAD11046184313D060461946504074
:100850007140084306D06046101AB34106D2012207
:10086000002306E000220123DB0702E00122D2433D
:100870005310009874460105381C6141029C039D89
:1008800000196941FFF72CFFBFE70000FD030000DE
:100890004A0009030123090B1B0519430A4B10B534
:1008A000520D9A4202DA0020014610BD064B343345
:1008B0009A4203DC9A1A00F037F810BD034BD218A5
:1008C000FFF7AAFE10BD0000FF030000CDFBFFFFF5
:1008D00010B5002904DB0124E40740428C41214685
:1008E000002B04DB1C460123DB075242A341994243
:1008F00000D1904210BD00001CB509480090094885
:10090000019005460126009C05E0E36807CC3343CF
:100910000C3C98471034AC42F7D3FFF7D5FB0000EE
:10092000A81F0000C81F000010B5202A04DB0846DD
:10093000203AD040002110BD0B46D340D0402024A7
:10094000A21A91400843194610BD811E091F00BF1D
:10095000FCD2704770B50A780C231A400124240396
:1009600005196E689E43B2186A60497807221140E3
:10097000035993435918015170BD0000F0B584B07C
:10098000012422022A4B19680392914319603549C8
:100990000D686D04FCD5457E25409E69A6437419FB
:1009A0009C612024045D03252C40DE69AE4334198C
:1009B000DC61204C256805262660466A37681F6280
:1009C00076685E6207262E402660C4697F252D0268
:1009D000DE69AE436406640C3419DC61076845685F
:1009E00082680092C66802690192426902929A691D
:1009F000114C14403A07120B2D03ADB2AA18324322
:100A0000009D2D072D0D1543019A1543029A15439C
:100A1000007E2843094A0240101998611868039A19
:100A20001043186008688005FCD504B0F0BDC046CE
:100A300008010B40001340408D00F0FF72FF0F00D3
:100A400007498860074802689202FCD50122120417
:100A50000B6813430B600168C906FCD57047C0469C
:100A600004010B4004020B4070B582B00B794A7947
:100A7000002A25D0184A202B02D00524E40100E0EA
:100A8000434C8218002B00D18824156C3F4E354012
:100A90002D191564556C35402C19546414687A4D21
:100AA0002C40146054682C4054600024146254623A
:100AB0008F24E443156D25401565556D254055651A
:100AC0006A4613718B79537109680091114600F0E1
:100AD00005F802B070BDC04638180000F0B5684A8D
:100AE0008218294BC318087920280DD000281DD161
:100AF0000C68641E5460D56E244C25408835D5663C
:100B00001646703688251DE00C68641E5460D46E4D
:100B10001E4D2C401E4EA419D466146F2C40A419EF
:100B20001467012465071B4C16460BE00C6864082B
:100B30005460D66E154C26400525ED017619D66613
:100B400016467036376827402F433760D46A4E4DBB
:100B50002C40D462146B2C4014630024D4641465BC
:100B60008F24E443D56F2540D5671D6825401D605F
:100B700049790143BD2008401168074B0B40C0185C
:100B8000801C1060F0BDC0468418000024493E005F
:100B900001040000FFFFFFCF4000FFCFB0B54A685F
:100BA000364BC250364A80180A78222A58D8930009
:100BB00001A4E3589F46C046570C0000610C00009A
:100BC000570C0000610C0000610C0000610C00007B
:100BD000610C0000610C0000610C0000610C000061
:100BE000610C0000610C0000610C0000610C000051
:100BF000610C0000610C0000450C0000610C00005D
:100C0000450C0000610C0000610C0000610C00004C
:100C1000610C0000610C0000610C0000610C000020
:100C2000610C0000610C0000610C0000610C000010
:100C3000610C0000610C0000450C0000610C00001C
:100C4000450C000003231B0704689C4301235B073A
:100C5000E318036004E003231B0704689C4304605B
:100C60000B69C360CB68074C1C40C36A064D1D402E
:100C70002B19C362097A11430160B0BD0818000046
:100C800004180000777702008888FDFF10B507235D
:100C90009B04194092008018024A84589C436118B2
:100CA000815010BD3018000010B5029CA40000193E
:100CB00011431943014A815010BDC046501800002D
:100CC00092008018014A81507047C04610180000F9
:100CD00010B50122120383180C789C604B78835066
:100CE0008978014A815010BD0C110000B0B5112265
:100CF000120283580124A34383500B888C781C4331
:100D00008B882343094C1C408358094D1D406319AF
:100D100083508B79CC791C43097A21437E23194077
:100D2000801842689A4351184160B0BD18670000AE
:100D3000E798FDFF10B50122120383180C789C6020
:100D40004978815010BD0000034A801802681206DD
:100D5000FCD481617047C04608110000F0B52848F6
:100D60000068022816D0012848D1294801461039C8
:100D70000A686049130602D5264B01241C701140F5
:100D800001239C069201244A1AD51568254211D0E8
:100D90001D4611E0112001051A480246103A146858
:100DA00001231D06E202184A16D516682E420CD001
:100DB0001E460CE00025ED43184E3768ED193560EE
:100DC000A14218D35C06154B0BE00026F6430F4FEB
:100DD0003F68F6190D4F3E6021402C420BD01C0598
:100DE0000A4B1268224202D00022D24300E00122C4
:100DF0001C6812191A6002680A430260F0BDC046FE
:100E00003011404048300A4080330A401C00202006
:100E100048100A402001202080130A40180020209A
:100E2000B0B52C4A882191632B4804230360D16319
:100E300008210160294B991C1160516001214C0669
:100E4000156825431560556825435560822414654F
:100E50005C1C5465536381245466214DEB61946797
:100E6000D46794605461AB622B606B60EB66AB65DA
:100E7000AB66EB63EB64EC60AC606C61AC61194A2F
:100E8000194B13601363C903184A13680B431360AB
:100E90000521890413690B43136115490A6A154B2F
:100EA0001A430A620A681A430A600146303961220D
:100EB00052020A60026010480168104A0A43026048
:100EC000112000050E490A6A02430A620A680243B9
:100ED0000A60B0BD04804240D0320A408100040064
:100EE00084804240A0120A400060039090130A40A0
:100EF00028100A4080000006A0330A4000010100CB
:100F000028300A4080B511481149FFF723FD03201E
:100F10004102104802680A43026001210A02036884
:100F2000134303600022426109224262826B07235D
:100F30009A4382631A02836B93438363826A042316
:100F400013438362826A0A43826280BD00000F40BD
:100F50004C1F000000120F4070B582B0A54C19491B
:100F60002046FFF7B5FE18492046FFF77DFD002516
:100F70000095204629462A462B46FFF795FE204637
:100F800029462A46FFF782FE204629462A46FFF7D1
:100F900097FE01260096204629462A462B46FFF753
:100FA00083FE204629463246FFF770FE204629463A
:100FB0003246FFF785FE054886600321016002B0D6
:100FC00070BDC0464E1F0000541F00000031864017
:100FD000F0B581B01B48002404600F2000021A4DB8
:100FE0002968814301277E02881928600320C043B5
:100FF000291F0A6802400A606868B84368603802BE
:101000006968814369601148FFF7B8FC28681021BE
:10101000084320229043286038032A6802432A604C
:10102000A86B0843A863686BB04368632046FFF76A
:1010300007FDFF20000206490A6882430A6001B0EA
:10104000F0BDC04608030B4004010B405C1F0000CC
:1010500000E400E077480421016079494160002103
:101060008160016805220A430260704710B5084C90
:1010700008492046FFF72CFE07492046FFF78EFD62
:10108000064801680122114301600548026010BD55
:1010900000400840841F0000881F000028500840BE
:1010A0000851084010B5194C19492046FFF742FE77
:1010B00018492046FFF71AFE0320C10316480268AC
:1010C0008A4302600169154A0A401532026141698A
:1010D0002D220A4312218A434261426801210A40BB
:1010E00043688B439A1842604A04036813430360C1
:1010F000C26870231343C360C268022313430522EE
:101100009343C36002680A43026010BD0080104030
:101110009C1F00009E1F0000009110400000FFFF78
:1011200080B500F015F8FFF77BFEFFF751FFFFF7E2
:1011300013FFFFF79BFFFFF7E5FEFFF7B3FFFFF796
:1011400089FFB820014900220A5480BD5C0020209C
:1011500070B50C480C4941600C4A51600C4B596009
:101160000C4C61600C4D69600C4E71600C49016063
:10117000116019602160296031601020FFF7E5FBE4
:1011800070BDC04600080A40030000B100280A40B4
:10119000002886400048084000080F4000881040A2
:1011A00001000026F0B581B00C4601460127780306
:1011B000BA030F4E012902DB3060326102E0326077
:1011C000306149420B4D00222846FFF779FD380473
:1011D0007904012C02DB3160306102E03060316162
:1011E0006442012228462146FFF76AFD01B0F0BDA6
:1011F00090120A400020864002480168491C0160A4
:101200007047C0462401202010B50A490A484860AA
:101210000A4802680A4B1A400324A4071219026004
:1012200000228A6007220A600168194009190160DA
:1012300010BDC04610E000E07F38010020ED00E066
:10124000FFFFFF00F0B585B076480068C0B2012806
:1012500000D0E5E07448056874490E680024046015
:101260000C60642000F020F90228049407D00128C3
:1012700013D16F4801684A424A4102600DE06C4850
:101280000068002809D06B480168491CCA17920FF2
:101290008A1803239A43891A01602846FFF72EF91A
:1012A00003950546644F3946FEF777FF634C216886
:1012B000FEF71AFF20603046FFF720F90446394652
:1012C000FEF76BFF01465E4F3868FEF75EFF386041
:1012D0005C48039942C05C492846FEF75EFF5649C8
:1012E000FEF75BFF0546CC4E306058492046FEF7BE
:1012F00054FF5149FEF751FF554903900860B0680B
:101300002946FEF742FF0546524801682846FEF787
:101310003CFF04465048016828460291FEF73DFF15
:1013200007464E48006801902146FEF736FF3946D1
:10133000FEF7DAFE01464A4F3868FEF7D5FE04464E
:1013400038603B4800680028049E0DD1454E204679
:101350003146FFF7C5F8002806D1434E20463146F6
:10136000FFF7B0F8002801D13E60344639480560E7
:101370002046FFF7D5F8FFF7C1F80146A6480491CB
:101380004160334880680399FEF7FFFE0546374801
:1013900001682846FEF7F9FE064602982946FEF740
:1013A000FCFE074601983146FEF7F7FE3946FEF788
:1013B0009BFE01462E4C2068FEF796FE20601C49DD
:1013C0000968002901D000260FE0264E0746314665
:1013D000FFF786F8002808D1234E38463146FFF73C
:1013E00071F801463846002901D1266030461F4970
:1013F0000D60FFF795F80546FFF780F8144948603F
:101400000B480068002802D00020014606E00120B9
:10141000C10704984840FFF783F82946FFF7C2FE4A
:1014200005B0F0BD20500840180020201C002020EE
:101430000400202058002020FC0F933910002020A9
:1014400014002020500020200000C8420000C8C224
:101450004000202020002020080020200C00202018
:101460002400202000C0F34500C0F3C52800202040
:101470002C00202010B5044609490A68D20708D07C
:101480000A68D20705D00A68D20702D00A68D207D4
:10149000F3D1E1B20348FFF757FC204610BDC04628
:1014A0000891104000801040F0B583B0FFF731F88C
:1014B00001467F20C005FEF7ADFE3249FEF76DFE06
:1014C00002900126B40430490878304A00280BD035
:1014D000304800250580304805702D48058010688B
:1014E00020421FD10D7001E0294805883746106859
:1014F0001646204205D02848012101706D1C244861
:10150000058026480299FEF785FEFFF709F8A9B283
:10151000814232463E4606D903211B4806700846E2
:1015200003B0F0BD10681C4801780020012927D1C4
:1015300018490D88126822420190274601D16D1C7E
:101540000D801748029C2146FEF764FEFEF7E8FF77
:10155000009014482146FEF75DFEFEF7E1FFA9B2B8
:10156000009A914208D9814206D208480068384260
:10157000019805D00221D0E7814231460198CCD8AC
:1015800003B0F0BD00007A441801202080130A4007
:101590001A0120201E0120201C0120200000FA43F7
:1015A000000048420000964386B0FFF7B9FDFFF700
:1015B0002BFE1648016801221143016014480221E4
:1015C0000160016012040260124801600160026063
:1015D000114D6868FEF7A4FF0021FFF7E3FD2868BE
:1015E000FEF7B7FF05900E466868FEF7B2FF0746A4
:1015F0000C46A868FEF7ADFF0246059800ABC1C3D4
:10160000039406A00B4600F00FF8E2E7043886408A
:1016100080E200E000E100E03000202025662C257B
:10162000662C25660D0A00000FB410B503A9044B03
:10163000044A029800F0EEF810BC08BC04B0184749
:1016400075140000000020202021020C01D0102180
:101650001046020A01D010460839020901D010468E
:10166000091F820801D01046891E420801D0881E39
:101670007047081A7047000002E008C8121F08C12E
:10168000002AFAD1704700007047000000000000F7
:10169000002001E001C1121F002AFBD170470000A9
:1016A000F0B51FB486B00998089A030D00210243D3
:1016B00014D05148514A1818504305141198012864
:1016C00010981AD0281A401C00264D4F4D490096FC
:1016D00001910490002812DA444211E0119801248B
:1016E00049A3012801D11098C1430698119A84603A
:1016F0000360C26041600BB0F0BD4042E4E70446C5
:10170000210500203F4A001C51410391029012E044
:10171000E00707D032463B4601990098FEF76AFE83
:101720000191009032463B4610461946FEF762FE94
:1017300006460F466410002CEAD10498039B00284B
:10174000029A0999089806DAFEF754FE019B009A5E
:10175000FEF750FE05E0FFF723F8019B009AFFF724
:101760001FF804460E460022284BFFF7B1F803D8B5
:101770000020C043014607E00022254B20463146A9
:10178000FEF786FDFFF784F8102409E0002C0ADB41
:101790000A220023FEF710FF079B30321A55641E01
:1017A00002460A43F2D11122641C079B121B1C192A
:1017B000119B012B03D0012308430ED10AE00843FB
:1017C00004D0112010900020119077E71098151A7E
:1017D0006D1E0BE01098824202DD00236D1C03E0B9
:1017E000824201DA00236D1E002BEED0069811997B
:1017F0008260C16030C07EE701FCFFFF104D000039
:10180000000014400000F03F300000000000F043F2
:101810000000E03FFFB597B00646002518E22528F6
:1018200077D100242746FD49049400E00443761C48
:1018300032780120203A90400842F7D130782A28A7
:101840000ED00222307801463039092916D8049981
:101850000A235943303940181443761C0490F1E7A9
:10186000189802C804911890002904DA0120400356
:1018700004434842049002200443761C30782E280A
:1018800014D1042004437078761C2A2809D11898B2
:10189000761C80C8189009E00A214F43303FC719D1
:1018A000761C3078014630390929F5D930786C2812
:1018B00010D006DC4C281AD068280ED06A2817D120
:1018C00004E0742813D07A2812D110E001204005DA
:1018D00004430CE00121090501E0032109050C4343
:1018E0007178814203D1012000052418761C761CF2
:1018F0003078119066280BD013DC58287DD009DC95
:1019000000287BD04528F6D04628F4D047281AD1A5
:10191000A5E118E0632835D0642870D0652812D17D
:101920009DE170286CD008DC6728F1D069287BD055
:101930006E280DD06F2806D1BAE073282ED07528F6
:1019400071D0782859D01A9A199990476D1C7EE168
:101950006002400F022809D003280DD004281898EF
:1019600001680DD00D60001D189070E11898EA17FD
:1019700001680D604A60F6E7189801680D80F2E78B
:101980000D70F0E718986A4601781172001D1890E2
:101990000020507202A80090012005E0189802C8AB
:1019A000189000200091C04361070DD5002101E08F
:1019B0000199491C0191B94212DA8142F8DB009A7F
:1019C000515C0029F4D10BE0002101E00199491C90
:1019D00001918142FADB019A0099895C0029F5D1D5
:1019E000019904981A9B471A21463846199A00F023
:1019F00097FA0199401945180BE04FE02CE113E0EC
:101A00004EE0009800990078491C00911A9A1999A3
:101A100090470198401E0190401CF2D12146384663
:101A20001A9B199A10E137E00A20002100900191D9
:101A30006002410F022907D0189A01CA1892C217F2
:101A40009446032908D00AE01898C01DC108C900AF
:101A500005C91891944607E000B2C21794460429BC
:101A600002D140B2C1178C4600226146944506DA85
:101A70000A460021404291418C462D2102E0210579
:101A800004D52B216A461173012103E0E10701D03F
:101A90002021F7E7029155E00A200AE0102008E033
:101AA000102000900021042004430191082703E046
:101AB00008200021019100906002410F022907D007
:101AC000189A01CA189200229446032908D008E007
:101AD0001898C01DC108C90005C91891944603E0B3
:101AE00080B2042900D1C0B200210291210729D57A
:101AF0001199702906D0009A1021019B4A401A437F
:101B000005D00EE040216A461173012108E06146CC
:101B1000014306D030216A46117311995173022195
:101B20000291009A0821019B4A401A430AD161465A
:101B3000014301D1610705D530216A4611730121A6
:101B40007F1E02911199582904D035A10E910DA93B
:101B50000D910DE037A1F9E76146019B009AFEF770
:101B60002BFD0E9B8C469B5C0D9A521E0D921370A2
:101B700061460143F0D10D9805A9081A2030019063
:101B8000600703D501200004844300E00127019889
:101B9000874201DD381A00E00020019900904118C9
:101BA000029809180498401A0490E00306D42146CC
:101BB0001A9B199A049800F0B3F94519002706E01A
:101BC00003A81A9AC05D199990476D1C7F1C029852
:101BD0008742F5DBE0030CD521461A9B199A04983D
:101BE00000F09EF9451904E01A9A3020199990479F
:101BF0006D1C0099481E00900029F5DC08E00D9846
:101C00000D990078491C0D911A9A199990476D1CED
:101C10000199481E01900029F1DC63E109280100C7
:101C20003031323334353637383961626364656652
:101C30000000000030313233343536373839414214
:101C4000434445460000000000F05AF94519761C4F
:101C50003078002800D0E2E528461BB0F0BD6007D0
:101C600000D406271898C01DC108C90048680A6832
:101C70000831C30FDB071891190001D09CA108E0BF
:101C8000210501D59BA104E0E10701D09AA100E064
:101C90009AA1430011985B08109165280CD006DCCE
:101CA000452809D046281DD0472841D141E0662863
:101CB00018D067283CD13CE00021112F01DB112016
:101CC00000E0781C0191009008A911A8FFF7E8FC3A
:101CD000139905910021119A15927F1C1298019772
:101CE000009150E00120C00703900120019008A955
:101CF000009711A8FFF7D4FC139A149905920022BB
:101D0000119B009212981593059A0192002901D017
:101D1000104602E0791C40180190381A01D501984C
:101D200004E04042401E0090781C0190C01B0290CD
:101D300043E0012F00DA01270021112F01DD1120DE
:101D400000E038460191009008A911A8FFF7A8FC0F
:101D500013990591119A00211298159200910197FB
:101D600021070CD40599B94201DB019900E00191EA
:101D7000012904DD159A491E515C302906D0B8426C
:101D800001DA011D05DA0121029115E00199491ED0
:101D9000EDE7002805DC0099411800910199091A26
:101DA00003E0019A411C914200DD01910099401A23
:101DB000401C02900120C0070390200706D402991E
:101DC0000198814202DB0020C04302900020694656
:101DD000C87707AF012103980337C907884224D089
:101DE000022011902B201290039800280CDA404218
:101DF00003902D20129007E00A210398FEF7BDFB07
:101E000030317F1E039039701199481E11900029BE
:101E1000F2DC03980028EFD1791E12980870307810
:101E2000202108404530BF1E387006A8C01BC01DC9
:101E3000039010980078002800D0012001994118E3
:101E40000298C0170918039809180498401A401EF0
:101E50000490E00306D421461A9B199A049800F0D6
:101E60005FF8451910980078002803D01A9A19993C
:101E700090476D1CE00324D521461A9B199A0498BB
:101E800000F04EF845191CE00098002807DB009987
:101E90000598884203DD1598405C199901E019996D
:101EA00030201A9A904700986D1C401C00900298B0
:101EB000401E0290002804D11A9A2E2019999047AA
:101EC0006D1C0199481E01900029DDDC05E0387881
:101ED0001A9A7F1C199990476D1C0399481E03900C
:101EE0000029F4DC21461A9B199A0498ACE60000FC
:101EF0002D0000002B00000020000000000000006A
:101F0000F8B5044600251E461746880404D405E0AB
:101F100039462020B0476D1C641EF9D52846F8BD0F
:101F2000FFB50446002581B01E46C80301D5302701
:101F300000E02027880404D505E038460399B0471F
:101F40006D1C641EF9D5284605B0F0BD08000800D8
:101F500000000000401F0000200001000100000000
:101F60000000000000000000400000002000000011
:101F7000000000000200000004000000010000005A
:101F80002C00C44108001F0002000000D3300000F4
:101F90000100000000000000000000000800000038
:101FA0001800000000300000C81F000000002020C2
:101FB0001000000078160000D81F0000100020203C
:101FC0001811000090160000000000000100000041
:081FD0000000C8430000C843F3
:04000005000000C136
:00000001FF
